:0200000460009A
:100000004643464200000156000000000101020084
:1000100000000000000000000000000000000000E0
:1000200000000000000000000000000000000000D0
:1000300000000000000000000000000000000000C0
:1000400000000000010403000000000000000000A8
:100050000000800000000000000000000000000020
:100060000000000000000000000000000000000090
:100070000000000000000000000000000000000080
:10008000EB04180A063204260000000000000000FD
:10009000050404240000000000000000000000002F
:1000A0000000000000000000000000000000000050
:1000B0000604000000000000000000000000000036
:1000C0000000000000000000000000000000000030
:1000D00020041808000000000000000000000000DC
:1000E0000000000000000000000000000000000010
:1000F0000000000000000000000000000000000000
:10010000D8041808000000000000000000000000F3
:100110000204180804200000000000000000000095
:1001200000000000000000000000000000000000CF
:10013000600400000000000000000000000000005B
:1001400000000000000000000000000000000000AF
:10015000000000000000000000000000000000009F
:10016000000000000000000000000000000000008F
:10017000000000000000000000000000000000007F
:10018000000000000000000000000000000000006F
:10019000000000000000000000000000000000005F
:1001A000000000000000000000000000000000004F
:1001B000000000000000000000000000000000003F
:1001C000000100000010000001000000000000001D
:1001D000000001000000000000000000000000001E
:1001E000000000000000000000000000000000000F
:1001F00000000000000000000000000000000000FF
:10020000FFFFFFFFFFFFFFFFFFFFFFFFFFFFFFFFFE
:10021000FFFFFFFFFFFFFFFFFFFFFFFFFFFFFFFFEE
:10100000D10020402C100060000000000000000013
:1010100020100060001000600000000000000000D0
:1010200000000060D8E70000000000000000012080
:1010300035100060774B4FF42A01774A77485A649D
:101040001864774A99639546764A03F530337649B2
:1010500008208A42C3F854010FD0744B9A420CD234
:10106000D4430846234423F0030304330B4450F8CD
:10107000041B984242F8041BF9D16D4A6D498A421B
:101080000FD06D4B9A420CD2D4430846234423F030
:10109000030304330B4450F8041B984242F8041B2A
:1010A000F9D1664A664B9A420BD2D04311460024CE
:1010B000034423F003030433134441F8044B8B42ED
:1010C000FBD1604A4FF470015F4B116003F5307142
:1010D0005E4A43F8042F9942FBD15D4B80215D4A63
:1010E00003F8011B9342FBD15B4C4FF080375B4E02
:1010F0004FF0FF32DFF8A4A10025DFF8A491DFF85C
:10110000A481574B4349C3F800A0C4F80471C4F844
:101110000091C4F8F470C4F8F080F36923F07F0301
:1011200043F04003F361736A23F07F0343F040030D
:1011300073628A66CA660A674A6700F0E1F8494A3C
:101140006320494B4949106003221D60CAF83810DA
:1011500043F8082C4649474A4748C3F8082D0B680E
:10116000464A43F08073CAF83C0045480B60136858
:10117000444943F00103136003680B6000F0FAFA7E
:10118000C4F804714048C4F80091C4F8F470C4F87D
:10119000F08000F0E9FC00BF00BF00BF00BFF16EAF
:1011A0003A4A41F440513A4BF1661560C2F8085191
:1011B000C2F81851C2F82851C2F838519A6BD207B8
:1011C00008D442F61562334959651A659A6B42F0A4
:1011D00001029A632E4A304C936843F001139360E6
:1011E00000F00AF900F0A4FC2368132BFCD900F0EE
:1011F00081FB00F059F800F0AFFC00F0EDFA00F0D0
:1012000093FC2368B3F5967FFBD300F09DFC00F0C0
:101210009FFCFEE700C00A40AFAAAAAA0700200070
:101220000000072000000000801B006058B2000092
:1012300000000020DCCD0060001A0020001A002011
:10124000C042002088ED00E0FC1F0020D15C0000BF
:1012500000E400E0A0E400E000800D4000C00F408A
:1012600008ED00E014E000E018E000E0E5520000C6
:10127000FCED00E000002020E9520000001000E03A
:10128000041000E0141D00200046C3230040084065
:1012900000400D400000C0561C1D00200020002012
:1012A0001B1018200C0D1113114B1249D86E0A4651
:1012B00040F4403030B4D86640F23765D86EA02490
:1012C00040F44070D8664D648C64936C1B06FCD46B
:1012D000094B40F23760A0211A4658649964936C18
:1012E00013F08003FBD1054A137030BC704700BF78
:1012F00000C00F4000400C4000800C40111D002039
:10130000F0B5284A0020284B4FF0100C274C11272D
:10131000DFF8D8E0122620600125C2F800C0C3F82B
:1013200000E01760DFF8C8E0214FC3F800E0166066
:101330001F60204E204F166020491F60204E41F054
:101340001501204F16601F6007F540371E4E1160D3
:1013500002371E60DFF89CE01C4E1D49C2F800E019
:101360001F6016601B4F19601B4E1C4917601E60E2
:101370001B4F11601B4E1C491F60166019602560D1
:10138000BFF34F8FBFF36F8FC3F8B001BFF34F8F21
:10139000BFF36F8F52F8883C43F4403342F8883CE7
:1013A000F0BD00BF9CED00E0A0ED00E094ED00E09A
:1013B000090010001300200021000207C042002095
:1013C0001400002025000813090000101700004039
:1013D00033001013180000602F000B071900007075
:1013E00037000B171A0000702F000B133F0000107E
:1013F0002500080316002020F0B5B84B1822B84E7F
:101400000120B84948F20C7EB74D4FF0FF37B74C7A
:10141000C3F85C12C3F860520025C3F86412C3F825
:1014200068424FF40054C3F86C62B149C3F870626B
:10143000C3F87462C3F87862AE4EDA661A675A6708
:101440009A67DA67C3F88020C3F88420C3F888203D
:1014500040F20562C1F82C03C1F83003C1F834032F
:10146000C1F83803C1F83C03C1F850032946B369F9
:10147000A1481840A14B0343A148B361D6F884307A
:1014800043F00C03C6F8843002260368334303603C
:10149000036803EA0E0E9B4B4EEA0303DFF89CE25F
:1014A0000360994B4760DEF808703B40974F43F06C
:1014B00000538360C36823F07803C360036A1F404E
:1014C000934B3B43914F0362036A1F40904B3B4356
:1014D000904F43628762C762DEF8B8308E4F23F0C8
:1014E0003F0343F00103C0F8B830DEF8BC30DFF84A
:1014F00034E223F03F0343F00103C0F8BC30056140
:1015000004660767C0F8802044664767C0F88420F7
:101510000468824B24F00204814A0460C0F818E099
:10152000C66143F8041B9342FBD1754B1A681946F8
:1015300042F001021A600B68714A13F00103FAD1FC
:10154000784E022540F2F56440F2664040F299413F
:10155000754F966142F20146D56140F23545C2F8B9
:10156000004242F20124C2F810020120C2F8201207
:101570001146C2F8307207F15A47C2F8346207F5D3
:101580001377C2F84052694E694DC2F85072C2F8E2
:101590005462C2F86052C2F86442C2F8A030C2F885
:1015A000A430C2F8B0004B69554ADD07FBD50123D2
:1015B00000244FF4803011465361C2F8A040C2F8B5
:1015C000A400C2F8B0304B694D4ADC07FBD50123BB
:1015D00000244FF4003011465361C2F8A040C2F815
:1015E000A400C2F8B0304B69454AD807FBD50123A7
:1015F0000024504811465361C2F8A040C2F8A4002C
:10160000C2F8B0304B693E4ADB07FBD5D2F8003157
:1016100045F60D5121209BB250618B4200D0F0BDA8
:1016200000244FF4802001231146C2F8A040C2F8E4
:10163000A400C2F8B0304B69314ADF07FBD5012363
:101640004FF40004002011465361C2F8A040C2F8D4
:10165000A400C2F8B0304B69294ADE07FBD501234C
:101660004FF400044FF4803011465361C2F8A0409B
:10167000C2F8A400C2F8B0304B69214ADD07FBD59F
:1016800001234FF400044FF4003011465361C2F8B7
:10169000A040C2F8A400C2F8B0304B69184ADC0779
:1016A000FBD501234FF40004224811465361C2F8D0
:1016B000A040C2F8A400C2F8B0304B69104AD80765
:1016C000FBD5D2F8003145F60D5121209BB2506177
:1016D0008B4235D0184B08221A70F0BD00801F4095
:1016E000F9700100F9B00100F9100100F9000100E2
:1016F00000841F4000C00F40FFFCFF1F000300A03C
:1017000000402A401200FFFFFF37F70000FFF07C87
:1017100040000080FF000F836300020000422A4067
:1017200000432A40F05AF05A9F041830063201262E
:101730003806180A04000300201D002000802A40FB
:101740004FF400044FF4802001231146C2F8A0405A
:10175000C2F8A400C2F8B0304B69044ADB07FBD5DD
:101760000120034B102150611970F0BD00402A4048
:10177000201D0020F0B4174A40274FF480314FF469
:1017800080564FF400554FF4404443F24200136931
:1017900013F0020F06D0946151619061136913F048
:1017A000020FF8D113F4005F01D15561EFE713F494
:1017B000805F01D15661EAE7002BE8DA13F4803F3D
:1017C00001D09161E3E75B0601D45761DFE7F0BC2C
:1017D000704700BF00800D403B4AF3EE096A3B4969
:1017E00000201368F0B523F001030324DFF800E1C3
:1017F0001360C2F89040D1F8E030354FDDB2C3F34A
:101800000B24344EC4EB135307EE905AA5F1550147
:10181000CEF80050B8EEE77A03EB830507EE904A66
:1018200003FB01F13B6003EB8313B8EEE75A07EECD
:10183000901A491B77EE666AB8EE677A264D07EE76
:10184000901A0B44C5ED006AF8EE677A3460C7EE73
:10185000265A224E15682249224C87EEA66A07EEC8
:10186000903A214BC6F84031F8EE677A87EEA67AB7
:1018700075EE855A76EE056AFCEEE55AFCEEE66AF0
:1018800015EE903A45EA035316EE905A77EE057A34
:10189000136001EA0541D2F81031FCEEE77A0B4300
:1018A000C2F8103117EE903AD2F81011C3F30B03BF
:1018B0000B43C2F81031136843F002031360207029
:1018C0000A4B01221A60F0BD80810D4000441F4088
:1018D0002C1D0020301D0020281D0020002000208D
:1018E0000000FF0F40E400E0B15D000008E100E00F
:1018F000241D0020304B40F6617270B5C3F82021E2
:1019000040F2044500F018F92C492D48D1F8802008
:101910002C4C42F003022C4BC1F88020C0F86051DF
:10192000226813401BB9D0F8A8319A071AD0244B6B
:101930004FF00041234A51631A46D3F8401141F059
:101940000201C3F84011D2F840319B07FBD44FF499
:1019500000301E491B4B4FF00042086019209A636B
:1019600000F0EEF81A4D0022164B4FF08041144C57
:101970000A26996328461A601146C4F8A8614FF4F4
:10198000207200F0EDF84FF481064FF4800040F231
:101990004313104A10492E602864C4F85851C2F805
:1019A0000412C4F848310D4A4FF40031012311608C
:1019B000C4F8403170BD00BF00800D4000C00F4032
:1019C00000002E4000900D40001C1E008CE200E044
:1019D00000400020002000201D5F00000CE100E01E
:1019E000EF03038002CF0300C130ED0464031281D2
:1019F000E803850078CB05392C003402F70120EA92
:101A0000020000C00123C10110C5023E28C70186A3
:101A10003601483701003A0155B1020018B60308F3
:101A20008227F20100260101E00F0F312B0C0E0876
:101A30004EF1370710030E0900E10F000E140311D9
:101A40000731C148080F0C31360F1180298000FF83
:101A50001603550053004200200053006500720039
:101A6000690061006C000000180354006500650007
:101A70006E00730079006400750069006E006F00ED
:101A80000403090409024300020100C032090400F2
:101A900000010202010005240010010524010101DA
:101AA0000424020605240600010705820310001025
:101AB00009040100020A00000007050302400000BB
:101AC000070584024000000009024300020100C033
:101AD0003209040000010202010005240010010582
:101AE00024010101042402060524060001070582E1
:101AF0000310000509040100020A000000070503A5
:101B00000200020007058402000200000A0600022B
:101B100002000040010001FFF8B500BFF8BC08BC9E
:101B20009E467047FFFFFFFF5FF800F0ED5C00008E
:101B30005FF800F0E95C00005FF800F0D566000097
:101B40005FF800F0095800005FF800F0C57500006C
:101B50005FF800F03D5B00005FF800F0856F00006B
:101B60005FF800F0897C00005FF800F04555000048
:101B70000101000011030000AD030000CD260000AC
:101B80000000000000000000000000000000000055
:101B90000000000000000000000000000000000045
:101BA0004FF08442F8B5936955691D400DD0244F1C
:101BB0000126956195FAA5F4B4FA84F457F8243017
:101BC00006FA04F49847A543F4D11E4A936955696F
:101BD0001D400DD01C4F0126956195FAA5F4B4FA6D
:101BE00084F457F8243006FA04F49847A543F4D156
:101BF000164A936955691D400DD0154F0126956110
:101C000095FAA5F4B4FA84F457F8243006FA04F4EB
:101C10009847A543F4D10F4A936955691D400ED0EA
:101C20000D4F0126956195FAA5F4B4FA84F457F89E
:101C3000243006FA04F49847A543F4D1F8BDF8BD62
:101C40000C0E0020004000428C0E0020008000425C
:101C50000C0F002000C000428C0F002010B5054C76
:101C6000237833B9044B13B10448AFF30080012348
:101C7000237010BD001A00200000000054B20000C4
:101C8000084B10B51BB108490848AFF3008008485D
:101C9000036803B910BD074B002BFBD0BDE8104013
:101CA000184700BF00000000041A002054B20000D2
:101CB000001A0020000000002DE9F84332210446FC
:101CC0001C2200201E4B002604F14C052064616498
:101CD0004FF00008A2641B4FDFF86C900FCB85E833
:101CE0000F0013A1D1E9000113A3D3E90023C4E934
:101CF000186704F1480504F15806C4E91A01C4E95B
:101D00001C23C4E91E8955F8040F0021C0B205F058
:101D1000E1FBB542F7D194F84800012105F0DAFB68
:101D2000002200232046C4E90623BDE8F88300BF53
:101D300009ED25B497D01240C4E40A627205094047
:101D400000000020000018400000F83FF8B50546EC
:101D5000012190F84800A92705F0B0FBB2EE045B22
:101D6000B0EE007B104EF2EE046A95F848000021B8
:101D700095ED064BA4EE057BFDEEC77B17EE904A72
:101D800086FB0436E217C2EBA61307FB134307EEEC
:101D9000903AF8EEE77A87EEA67AB7EEC77A85ED45
:101DA000067B05F08BFBF8BDEB5DF260FFF7CEBF65
:101DB00026231B211A222DE9704F43601D23044660
:101DC000016142611E21836127222823C1612520F0
:101DD000E2622363002210232060A2600121E260FE
:101DE00023626362A362284E284D0FF28C0BDBE95D
:101DF00000AB0FF28C09D9E90089C4E90EABC4E944
:101E0000108905F067FB2078012105F057FB207948
:101E1000012105F05FFB2079012105F04FFB2079BE
:101E2000012105F057FB2079012105F047FB207CBB
:101E3000012105F04FFB207C317805F03FFB207D30
:101E4000012105F047FB3178207D05F037FB207E2E
:101E5000012105F03FFB207E297805F02FFB207F34
:101E6000012105F037FB207F297805F027FB20466C
:101E7000BDE8708FAFF300803A4522D47FE11E4069
:101E8000ABAAAAAAAAAA1E40501A0020541A0020DF
:101E90000F4A00230F4910680F4A30B40024002570
:101EA000486050600B708B61CB610B624B628B6240
:101EB00013709361D361136253629362C1E9024567
:101EC000C1E90445C2E90245C2E9044530BC704796
:101ED0009C0D0020201A0020581A0020F0B504465E
:101EE00085B0114E4FF6FF75B4F918E00527B0F92B
:101EF00014303046B4F92020B4F91C10CDF800E0BD
:101F00000295019703F00EFC0322B4F90C30304621
:101F1000B4F92410B4F9084001920022029500940B
:101F200003F000FC05B0F0BD8C1A0020232324220E
:101F30002221014804F022BF8C1A00202DE9F0472D
:101F40008EB03C490646DFF8FCA002A805F08CF8EC
:101F5000394906A805F088F80AA8384905F084F838
:101F6000DAF80030002B61DB022B49DC344F002112
:101F7000F0204FF6FF78B946B6F91C300A460090BB
:101F8000019138460C460D4604F032F8B2680F2332
:101F900000202244FB81DAF8003092B2AB4202F119
:101FA0000701398230D0A9F81280A9F8140002ABD9
:101FB000234803EB0511013504F07CFF204804F0B1
:101FC0009FFFB268F3690A212244CDF80480193BCF
:101FD0001B4812B21E341BB20092A4B203F00AFADC
:101FE000032DD3D100230AA8B36204F0FDFF06A895
:101FF00004F0FAFF02A804F0F7FF0EB0BDE8F08786
:102000000023CAF80030B1E7F36986461F21CDF8F6
:102010000480233B12B200910A211BB20848A9F8A0
:102020001480A9F812E003F0E3FFC0E70223CAF826
:1020300000309BE7200000203000002040000020FE
:102040008C1A0020001B00202DE9F843114D814619
:102050000C460221284617469846089E03F040FE8B
:10206000D9F8102004EB440138463732A5F80E8029
:10207000C4EBC104164434442C8207F0C1FE394637
:102080000246284604F000FF28460121BDE8F84337
:1020900003F026BE8C1A0020F8B50346076A0E4CE2
:1020A0000E469A6902219D6820463A44DB692A441B
:1020B00007332282E38103F013FE084B00223046EF
:1020C0001B88A282638207F09BFE314602462046AF
:1020D000BDE8F84004F0D8BE8C1A0020A00D002006
:1020E0002D4B1B7830B5044683B01BB9836AC26A96
:1020F0007BBB72BB294900224FF020338DF80420AE
:10210000009391ED183B9FED1E4B9FED1F5B9FEDE4
:10211000206B83EE047B27EE057BB4EEC67BF1EEED
:1021200010FA29DCB2EE026BB4EEC67BF1EE10FAC7
:102130000CDC0DF102001A4953EC172B07F0C0FD1F
:1021400069462046FFF7A8FF03B030BD0DF101003E
:10215000F1E7002A134D1449B8BF03322B68134826
:1021600003EBA2031A462B6004F0E2FE0023204694
:10217000E362FFF7E3FEBDE76846DCE7AFF300800C
:10218000000000C0CCCC30400000000000005940EE
:102190000000000000C05840881A0020201B0020CA
:1021A00058000020001B00204C0000203C100020A4
:1021B0004FF0C80C4FF482720A231E212DE9F04122
:1021C00004464FF0FA0E0025424E28203C2782B0EC
:1021D000C4F818C0C4F81CE06262A36023612362E3
:1021E00061602946E060304667614FF6FF77256001
:1021F000A562E56204F032FD30460121DFF8EC8093
:1022000004F068FD2946304603F048F806F002FC69
:102210002946304603F042F82F4B294620461F80BE
:10222000FFF75CFE20460121FFF758FE2046022101
:10223000FFF754FE20460321FFF750FE37222946C0
:1022400030460092F023019703F0D4F82369294621
:10225000204642460095FFF7F7FE23692046009589
:102260001E4A0121FFF7F0FE2369204600951C4A13
:102270000221FFF7E9FE8622294630460092F0232C
:10228000019703F0B7F823693046022103F1860273
:10229000F381328203F024FD08223046114904F014
:1022A000F3FD3046012103F01BFD0821236942465E
:1022B000204600910421FFF7C7FE30460A4904F08A
:1022C0007BF90121212005F0F9F8204602B0BDE894
:1022D000F08100BF8C1A0020A00D002068000020B3
:1022E000700000207800002080F0FA0260000020DA
:1022F0000A4901220A4B087810B50A4CC3F8F020AD
:1023000005F0E2F8002301460A22204604F020FEF0
:102310002046BDE8104004F0F3BD00BFAC0D002026
:10232000201B00203C100020204B1A6813685068C6
:102330001968936810B404681940D06804421BD02F
:10234000137C03F0030309B143F0040343F00803D3
:102350009910013B11740D2B0BD8DFE803F0210716
:102360001B070A152121150A071B07215369013B89
:1023700053615DF8044B7047137C03F0030300299D
:10238000E6D043F00403E3E753695DF8044B023BF6
:102390005361704753695DF8044B023353617047D2
:1023A00053695DF8044B013353617047241C0020CE
:1023B000204B5A68136850681968936810B4046811
:1023C0001940D06804421BD0137C03F0030309B109
:1023D00043F0040343F008039910013B11740D2BE3
:1023E0000BD8DFE803F021071B070A152121150A86
:1023F000071B07215369013B53615DF8044B70478C
:10240000137C03F003030029E6D043F00403E3E761
:1024100053695DF8044B023B5361704753695DF8A3
:10242000044B02335361704753695DF8044B013329
:1024300053617047241C0020204B9A681368506831
:102440001968936810B404681940D06804421BD01E
:10245000137C03F0030309B143F0040343F00803C2
:102460009910013B11740D2B0BD8DFE803F0210705
:102470001B070A152121150A071B07215369013B78
:1024800053615DF8044B7047137C03F0030300298C
:10249000E6D043F00403E3E753695DF8044B023BE5
:1024A0005361704753695DF8044B023353617047C1
:1024B00053695DF8044B013353617047241C0020BD
:1024C000204BDA68136850681968936810B4046880
:1024D0001940D06804421BD0137C03F0030309B1F8
:1024E00043F0040343F008039910013B11740D2BD2
:1024F0000BD8DFE803F021071B070A152121150A75
:10250000071B07215369013B53615DF8044B70477A
:10251000137C03F003030029E6D043F00403E3E750
:1025200053695DF8044B023B5361704753695DF892
:10253000044B02335361704753695DF8044B013318
:1025400053617047241C0020204B1A69136850689F
:102550001968936810B404681940D06804421BD00D
:10256000137C03F0030309B143F0040343F00803B1
:102570009910013B11740D2B0BD8DFE803F02107F4
:102580001B070A152121150A071B07215369013B67
:1025900053615DF8044B7047137C03F0030300297B
:1025A000E6D043F00403E3E753695DF8044B023BD4
:1025B0005361704753695DF8044B023353617047B0
:1025C00053695DF8044B013353617047241C0020AC
:1025D000204B5A69136850681968936810B40468EE
:1025E0001940D06804421BD0137C03F0030309B1E7
:1025F00043F0040343F008039910013B11740D2BC1
:102600000BD8DFE803F021071B070A152121150A63
:10261000071B07215369013B53615DF8044B704769
:10262000137C03F003030029E6D043F00403E3E73F
:1026300053695DF8044B023B5361704753695DF881
:10264000044B02335361704753695DF8044B013307
:1026500053617047241C0020204B9A69136850680E
:102660001968936810B404681940D06804421BD0FC
:10267000137C03F0030309B143F0040343F00803A0
:102680009910013B11740D2B0BD8DFE803F02107E3
:102690001B070A152121150A071B07215369013B56
:1026A00053615DF8044B7047137C03F0030300296A
:1026B000E6D043F00403E3E753695DF8044B023BC3
:1026C0005361704753695DF8044B0233536170479F
:1026D00053695DF8044B013353617047241C00209B
:1026E000204BDA69136850681968936810B404685D
:1026F0001940D06804421BD0137C03F0030309B1D6
:1027000043F0040343F008039910013B11740D2BAF
:102710000BD8DFE803F021071B070A152121150A52
:10272000071B07215369013B53615DF8044B704758
:10273000137C03F003030029E6D043F00403E3E72E
:1027400053695DF8044B023B5361704753695DF870
:10275000044B02335361704753695DF8044B0133F6
:1027600053617047241C0020204B1A6A136850687C
:102770001968936810B404681940D06804421BD0EB
:10278000137C03F0030309B143F0040343F008038F
:102790009910013B11740D2B0BD8DFE803F02107D2
:1027A0001B070A152121150A071B07215369013B45
:1027B00053615DF8044B7047137C03F00303002959
:1027C000E6D043F00403E3E753695DF8044B023BB2
:1027D0005361704753695DF8044B0233536170478E
:1027E00053695DF8044B013353617047241C00208A
:1027F000204B5A6A136850681968936810B40468CB
:102800001940D06804421BD0137C03F0030309B1C4
:1028100043F0040343F008039910013B11740D2B9E
:102820000BD8DFE803F021071B070A152121150A41
:10283000071B07215369013B53615DF8044B704747
:10284000137C03F003030029E6D043F00403E3E71D
:1028500053695DF8044B023B5361704753695DF85F
:10286000044B02335361704753695DF8044B0133E5
:1028700053617047241C0020204B9A6A13685068EB
:102880001968936810B404681940D06804421BD0DA
:10289000137C03F0030309B143F0040343F008037E
:1028A0009910013B11740D2B0BD8DFE803F02107C1
:1028B0001B070A152121150A071B07215369013B34
:1028C00053615DF8044B7047137C03F00303002948
:1028D000E6D043F00403E3E753695DF8044B023BA1
:1028E0005361704753695DF8044B0233536170477D
:1028F00053695DF8044B013353617047241C002079
:10290000204BDA6A136850681968936810B4046839
:102910001940D06804421BD0137C03F0030309B1B3
:1029200043F0040343F008039910013B11740D2B8D
:102930000BD8DFE803F021071B070A152121150A30
:10294000071B07215369013B53615DF8044B704736
:10295000137C03F003030029E6D043F00403E3E70C
:1029600053695DF8044B023B5361704753695DF84E
:10297000044B02335361704753695DF8044B0133D4
:1029800053617047241C0020204B1A6B1368506859
:102990001968936810B404681940D06804421BD0C9
:1029A000137C03F0030309B143F0040343F008036D
:1029B0009910013B11740D2B0BD8DFE803F02107B0
:1029C0001B070A152121150A071B07215369013B23
:1029D00053615DF8044B7047137C03F00303002937
:1029E000E6D043F00403E3E753695DF8044B023B90
:1029F0005361704753695DF8044B0233536170476C
:102A000053695DF8044B013353617047241C002067
:102A1000204B5A6B136850681968936810B40468A7
:102A20001940D06804421BD0137C03F0030309B1A2
:102A300043F0040343F008039910013B11740D2B7C
:102A40000BD8DFE803F021071B070A152121150A1F
:102A5000071B07215369013B53615DF8044B704725
:102A6000137C03F003030029E6D043F00403E3E7FB
:102A700053695DF8044B023B5361704753695DF83D
:102A8000044B02335361704753695DF8044B0133C3
:102A900053617047241C0020204B9A6B13685068C8
:102AA0001968936810B404681940D06804421BD0B8
:102AB000137C03F0030309B143F0040343F008035C
:102AC0009910013B11740D2B0BD8DFE803F021079F
:102AD0001B070A152121150A071B07215369013B12
:102AE00053615DF8044B7047137C03F00303002926
:102AF000E6D043F00403E3E753695DF8044B023B7F
:102B00005361704753695DF8044B0233536170475A
:102B100053695DF8044B013353617047241C002056
:102B2000204BDA6B136850681968936810B4046816
:102B30001940D06804421BD0137C03F0030309B191
:102B400043F0040343F008039910013B11740D2B6B
:102B50000BD8DFE803F021071B070A152121150A0E
:102B6000071B07215369013B53615DF8044B704714
:102B7000137C03F003030029E6D043F00403E3E7EA
:102B800053695DF8044B023B5361704753695DF82C
:102B9000044B02335361704753695DF8044B0133B2
:102BA00053617047241C0020204B1A6C1368506836
:102BB0001968936810B404681940D06804421BD0A7
:102BC000137C03F0030309B143F0040343F008034B
:102BD0009910013B11740D2B0BD8DFE803F021078E
:102BE0001B070A152121150A071B07215369013B01
:102BF00053615DF8044B7047137C03F00303002915
:102C0000E6D043F00403E3E753695DF8044B023B6D
:102C10005361704753695DF8044B02335361704749
:102C200053695DF8044B013353617047241C002045
:102C3000204B5A6C136850681968936810B4046884
:102C40001940D06804421BD0137C03F0030309B180
:102C500043F0040343F008039910013B11740D2B5A
:102C60000BD8DFE803F021071B070A152121150AFD
:102C7000071B07215369013B53615DF8044B704703
:102C8000137C03F003030029E6D043F00403E3E7D9
:102C900053695DF8044B023B5361704753695DF81B
:102CA000044B02335361704753695DF8044B0133A1
:102CB00053617047241C0020204B9A6C13685068A5
:102CC0001968936810B404681940D06804421BD096
:102CD000137C03F0030309B143F0040343F008033A
:102CE0009910013B11740D2B0BD8DFE803F021077D
:102CF0001B070A152121150A071B07215369013BF0
:102D000053615DF8044B7047137C03F00303002903
:102D1000E6D043F00403E3E753695DF8044B023B5C
:102D20005361704753695DF8044B02335361704738
:102D300053695DF8044B013353617047241C002034
:102D4000204BDA6C136850681968936810B40468F3
:102D50001940D06804421BD0137C03F0030309B16F
:102D600043F0040343F008039910013B11740D2B49
:102D70000BD8DFE803F021071B070A152121150AEC
:102D8000071B07215369013B53615DF8044B7047F2
:102D9000137C03F003030029E6D043F00403E3E7C8
:102DA00053695DF8044B023B5361704753695DF80A
:102DB000044B02335361704753695DF8044B013390
:102DC00053617047241C0020204B1A6D1368506813
:102DD0001968936810B404681940D06804421BD085
:102DE000137C03F0030309B143F0040343F0080329
:102DF0009910013B11740D2B0BD8DFE803F021076C
:102E00001B070A152121150A071B07215369013BDE
:102E100053615DF8044B7047137C03F003030029F2
:102E2000E6D043F00403E3E753695DF8044B023B4B
:102E30005361704753695DF8044B02335361704727
:102E400053695DF8044B013353617047241C002023
:102E5000204B5A6D136850681968936810B4046861
:102E60001940D06804421BD0137C03F0030309B15E
:102E700043F0040343F008039910013B11740D2B38
:102E80000BD8DFE803F021071B070A152121150ADB
:102E9000071B07215369013B53615DF8044B7047E1
:102EA000137C03F003030029E6D043F00403E3E7B7
:102EB00053695DF8044B023B5361704753695DF8F9
:102EC000044B02335361704753695DF8044B01337F
:102ED00053617047241C0020204B9A6D1368506882
:102EE0001968936810B404681940D06804421BD074
:102EF000137C03F0030309B143F0040343F0080318
:102F00009910013B11740D2B0BD8DFE803F021075A
:102F10001B070A152121150A071B07215369013BCD
:102F200053615DF8044B7047137C03F003030029E1
:102F3000E6D043F00403E3E753695DF8044B023B3A
:102F40005361704753695DF8044B02335361704716
:102F500053695DF8044B013353617047241C002012
:102F6000204BDA6D136850681968936810B40468D0
:102F70001940D06804421BD0137C03F0030309B14D
:102F800043F0040343F008039910013B11740D2B27
:102F90000BD8DFE803F021071B070A152121150ACA
:102FA000071B07215369013B53615DF8044B7047D0
:102FB000137C03F003030029E6D043F00403E3E7A6
:102FC00053695DF8044B023B5361704753695DF8E8
:102FD000044B02335361704753695DF8044B01336E
:102FE00053617047241C0020204B1A6E13685068F0
:102FF0001968936810B404681940D06804421BD063
:10300000137C03F0030309B143F0040343F0080306
:103010009910013B11740D2B0BD8DFE803F0210749
:103020001B070A152121150A071B07215369013BBC
:1030300053615DF8044B7047137C03F003030029D0
:10304000E6D043F00403E3E753695DF8044B023B29
:103050005361704753695DF8044B02335361704705
:1030600053695DF8044B013353617047241C002001
:10307000204B5A6E136850681968936810B404683E
:103080001940D06804421BD0137C03F0030309B13C
:1030900043F0040343F008039910013B11740D2B16
:1030A0000BD8DFE803F021071B070A152121150AB9
:1030B000071B07215369013B53615DF8044B7047BF
:1030C000137C03F003030029E6D043F00403E3E795
:1030D00053695DF8044B023B5361704753695DF8D7
:1030E000044B02335361704753695DF8044B01335D
:1030F00053617047241C0020204B9A6E136850685F
:103100001968936810B404681940D06804421BD051
:10311000137C03F0030309B143F0040343F00803F5
:103120009910013B11740D2B0BD8DFE803F0210738
:103130001B070A152121150A071B07215369013BAB
:1031400053615DF8044B7047137C03F003030029BF
:10315000E6D043F00403E3E753695DF8044B023B18
:103160005361704753695DF8044B023353617047F4
:1031700053695DF8044B013353617047241C0020F0
:10318000204BDA6E136850681968936810B40468AD
:103190001940D06804421BD0137C03F0030309B12B
:1031A00043F0040343F008039910013B11740D2B05
:1031B0000BD8DFE803F021071B070A152121150AA8
:1031C000071B07215369013B53615DF8044B7047AE
:1031D000137C03F003030029E6D043F00403E3E784
:1031E00053695DF8044B023B5361704753695DF8C6
:1031F000044B02335361704753695DF8044B01334C
:1032000053617047241C0020204B1A6F13685068CC
:103210001968936810B404681940D06804421BD040
:10322000137C03F0030309B143F0040343F00803E4
:103230009910013B11740D2B0BD8DFE803F0210727
:103240001B070A152121150A071B07215369013B9A
:1032500053615DF8044B7047137C03F003030029AE
:10326000E6D043F00403E3E753695DF8044B023B07
:103270005361704753695DF8044B023353617047E3
:1032800053695DF8044B013353617047241C0020DF
:10329000204B5A6F136850681968936810B404681B
:1032A0001940D06804421BD0137C03F0030309B11A
:1032B00043F0040343F008039910013B11740D2BF4
:1032C0000BD8DFE803F021071B070A152121150A97
:1032D000071B07215369013B53615DF8044B70479D
:1032E000137C03F003030029E6D043F00403E3E773
:1032F00053695DF8044B023B5361704753695DF8B5
:10330000044B02335361704753695DF8044B01333A
:1033100053617047241C0020204B9A6F136850683B
:103320001968936810B404681940D06804421BD02F
:10333000137C03F0030309B143F0040343F00803D3
:103340009910013B11740D2B0BD8DFE803F0210716
:103350001B070A152121150A071B07215369013B89
:1033600053615DF8044B7047137C03F0030300299D
:10337000E6D043F00403E3E753695DF8044B023BF6
:103380005361704753695DF8044B023353617047D2
:1033900053695DF8044B013353617047241C0020CE
:1033A000204BDA6F136850681968936810B404688A
:1033B0001940D06804421BD0137C03F0030309B109
:1033C00043F0040343F008039910013B11740D2BE3
:1033D0000BD8DFE803F021071B070A152121150A86
:1033E000071B07215369013B53615DF8044B70478C
:1033F000137C03F003030029E6D043F00403E3E762
:1034000053695DF8044B023B5361704753695DF8A3
:10341000044B02335361704753695DF8044B013329
:1034200053617047241C0020214BD3F8802013687F
:1034300050681968936810B404681940D068044251
:103440001BD0137C03F0030309B143F0040343F0E2
:1034500008039910013B11740D2B0BD8DFE803F022
:1034600021071B070A152121150A071B072153698C
:10347000013B53615DF8044B7047137C03F0030379
:103480000029E6D043F00403E3E753695DF8044BF9
:10349000023B5361704753695DF8044B023353613B
:1034A000704753695DF8044B01335361704700BFA7
:1034B000241C0020214BD3F884201368506819681D
:1034C000936810B404681940D06804421BD0137C80
:1034D00003F0030309B143F0040343F00803991018
:1034E000013B11740D2B0BD8DFE803F021071B07FC
:1034F0000A152121150A071B07215369013B536156
:103500005DF8044B7047137C03F003030029E6D0F9
:1035100043F00403E3E753695DF8044B023B536156
:10352000704753695DF8044B023353617047536928
:103530005DF8044B01335361704700BF241C002029
:10354000214BD3F88820136850681968936810B429
:1035500004681940D06804421BD0137C03F00303B5
:1035600009B143F0040343F008039910013B1174BF
:103570000D2B0BD8DFE803F021071B070A152121CB
:10358000150A071B07215369013B53615DF8044B82
:103590007047137C03F003030029E6D043F00403D3
:1035A000E3E753695DF8044B023B5361704753698D
:1035B0005DF8044B02335361704753695DF8044B67
:1035C00001335361704700BF241C0020214BD3F806
:1035D0008C20136850681968936810B40468194007
:1035E000D06804421BD0137C03F0030309B143F0FD
:1035F000040343F008039910013B11740D2B0BD801
:10360000DFE803F021071B070A152121150A071B14
:1036100007215369013B53615DF8044B7047137CEC
:1036200003F003030029E6D043F00403E3E7536902
:103630005DF8044B023B5361704753695DF8044BDE
:1036400002335361704753695DF8044B0133536192
:10365000704700BF241C0020214BD3F89020136832
:1036600050681968936810B404681940D06804421F
:103670001BD0137C03F0030309B143F0040343F0B0
:1036800008039910013B11740D2B0BD8DFE803F0F0
:1036900021071B070A152121150A071B072153695A
:1036A000013B53615DF8044B7047137C03F0030347
:1036B0000029E6D043F00403E3E753695DF8044BC7
:1036C000023B5361704753695DF8044B0233536109
:1036D000704753695DF8044B01335361704700BF75
:1036E000241C0020214BD3F89420136850681968DB
:1036F000936810B404681940D06804421BD0137C4E
:1037000003F0030309B143F0040343F008039910E5
:10371000013B11740D2B0BD8DFE803F021071B07C9
:103720000A152121150A071B07215369013B536123
:103730005DF8044B7047137C03F003030029E6D0C7
:1037400043F00403E3E753695DF8044B023B536124
:10375000704753695DF8044B0233536170475369F6
:103760005DF8044B01335361704700BF241C0020F7
:10377000214BD3F89820136850681968936810B4E7
:1037800004681940D06804421BD0137C03F0030383
:1037900009B143F0040343F008039910013B11748D
:1037A0000D2B0BD8DFE803F021071B070A15212199
:1037B000150A071B07215369013B53615DF8044B50
:1037C0007047137C03F003030029E6D043F00403A1
:1037D000E3E753695DF8044B023B5361704753695B
:1037E0005DF8044B02335361704753695DF8044B35
:1037F00001335361704700BF241C0020214BD3F8D4
:103800009C20136850681968936810B404681940C4
:10381000D06804421BD0137C03F0030309B143F0CA
:10382000040343F008039910013B11740D2B0BD8CE
:10383000DFE803F021071B070A152121150A071BE2
:1038400007215369013B53615DF8044B7047137CBA
:1038500003F003030029E6D043F00403E3E75369D0
:103860005DF8044B023B5361704753695DF8044BAC
:1038700002335361704753695DF8044B0133536160
:10388000704700BF241C0020214BD3F8A0201368F0
:1038900050681968936810B404681940D0680442ED
:1038A0001BD0137C03F0030309B143F0040343F07E
:1038B00008039910013B11740D2B0BD8DFE803F0BE
:1038C00021071B070A152121150A071B0721536928
:1038D000013B53615DF8044B7047137C03F0030315
:1038E0000029E6D043F00403E3E753695DF8044B95
:1038F000023B5361704753695DF8044B02335361D7
:10390000704753695DF8044B01335361704700BF42
:10391000241C0020214BD3F8A42013685068196898
:10392000936810B404681940D06804421BD0137C1B
:1039300003F0030309B143F0040343F008039910B3
:10394000013B11740D2B0BD8DFE803F021071B0797
:103950000A152121150A071B07215369013B5361F1
:103960005DF8044B7047137C03F003030029E6D095
:1039700043F00403E3E753695DF8044B023B5361F2
:10398000704753695DF8044B0233536170475369C4
:103990005DF8044B01335361704700BF241C0020C5
:1039A000214BD3F8A820136850681968936810B4A5
:1039B00004681940D06804421BD0137C03F0030351
:1039C00009B143F0040343F008039910013B11745B
:1039D0000D2B0BD8DFE803F021071B070A15212167
:1039E000150A071B07215369013B53615DF8044B1E
:1039F0007047137C03F003030029E6D043F004036F
:103A0000E3E753695DF8044B023B53617047536928
:103A10005DF8044B02335361704753695DF8044B02
:103A200001335361704700BF241C0020214BD3F8A1
:103A3000AC20136850681968936810B40468194082
:103A4000D06804421BD0137C03F0030309B143F098
:103A5000040343F008039910013B11740D2B0BD89C
:103A6000DFE803F021071B070A152121150A071BB0
:103A700007215369013B53615DF8044B7047137C88
:103A800003F003030029E6D043F00403E3E753699E
:103A90005DF8044B023B5361704753695DF8044B7A
:103AA00002335361704753695DF8044B013353612E
:103AB000704700BF241C0020214BD3F8B0201368AE
:103AC00050681968936810B404681940D0680442BB
:103AD0001BD0137C03F0030309B143F0040343F04C
:103AE00008039910013B11740D2B0BD8DFE803F08C
:103AF00021071B070A152121150A071B07215369F6
:103B0000013B53615DF8044B7047137C03F00303E2
:103B10000029E6D043F00403E3E753695DF8044B62
:103B2000023B5361704753695DF8044B02335361A4
:103B3000704753695DF8044B01335361704700BF10
:103B4000241C0020214BD3F8B42013685068196856
:103B5000936810B404681940D06804421BD0137CE9
:103B600003F0030309B143F0040343F00803991081
:103B7000013B11740D2B0BD8DFE803F021071B0765
:103B80000A152121150A071B07215369013B5361BF
:103B90005DF8044B7047137C03F003030029E6D063
:103BA00043F00403E3E753695DF8044B023B5361C0
:103BB000704753695DF8044B023353617047536992
:103BC0005DF8044B01335361704700BF241C002093
:103BD000214BD3F8B820136850681968936810B463
:103BE00004681940D06804421BD0137C03F003031F
:103BF00009B143F0040343F008039910013B117429
:103C00000D2B0BD8DFE803F021071B070A15212134
:103C1000150A071B07215369013B53615DF8044BEB
:103C20007047137C03F003030029E6D043F004033C
:103C3000E3E753695DF8044B023B536170475369F6
:103C40005DF8044B02335361704753695DF8044BD0
:103C500001335361704700BF241C0020214BD3F86F
:103C6000BC20136850681968936810B40468194040
:103C7000D06804421BD0137C03F0030309B143F066
:103C8000040343F008039910013B11740D2B0BD86A
:103C9000DFE803F021071B070A152121150A071B7E
:103CA00007215369013B53615DF8044B7047137C56
:103CB00003F003030029E6D043F00403E3E753696C
:103CC0005DF8044B023B5361704753695DF8044B48
:103CD00002335361704753695DF8044B01335361FC
:103CE000704700BF241C0020214BD3F8C02013686C
:103CF00050681968936810B404681940D068044289
:103D00001BD0137C03F0030309B143F0040343F019
:103D100008039910013B11740D2B0BD8DFE803F059
:103D200021071B070A152121150A071B07215369C3
:103D3000013B53615DF8044B7047137C03F00303B0
:103D40000029E6D043F00403E3E753695DF8044B30
:103D5000023B5361704753695DF8044B0233536172
:103D6000704753695DF8044B01335361704700BFDE
:103D7000241C0020214BD3F8C42013685068196814
:103D8000936810B404681940D06804421BD0137CB7
:103D900003F0030309B143F0040343F0080399104F
:103DA000013B11740D2B0BD8DFE803F021071B0733
:103DB0000A152121150A071B07215369013B53618D
:103DC0005DF8044B7047137C03F003030029E6D031
:103DD00043F00403E3E753695DF8044B023B53618E
:103DE000704753695DF8044B023353617047536960
:103DF0005DF8044B01335361704700BF241C002061
:103E0000214BD3F8C820136850681968936810B420
:103E100004681940D06804421BD0137C03F00303EC
:103E200009B143F0040343F008039910013B1174F6
:103E30000D2B0BD8DFE803F021071B070A15212102
:103E4000150A071B07215369013B53615DF8044BB9
:103E50007047137C03F003030029E6D043F004030A
:103E6000E3E753695DF8044B023B536170475369C4
:103E70005DF8044B02335361704753695DF8044B9E
:103E800001335361704700BF241C0020214BD3F83D
:103E9000CC20136850681968936810B404681940FE
:103EA000D06804421BD0137C03F0030309B143F034
:103EB000040343F008039910013B11740D2B0BD838
:103EC000DFE803F021071B070A152121150A071B4C
:103ED00007215369013B53615DF8044B7047137C24
:103EE00003F003030029E6D043F00403E3E753693A
:103EF0005DF8044B023B5361704753695DF8044B16
:103F000002335361704753695DF8044B01335361C9
:103F1000704700BF241C0020214BD3F8D020136829
:103F200050681968936810B404681940D068044256
:103F30001BD0137C03F0030309B143F0040343F0E7
:103F400008039910013B11740D2B0BD8DFE803F027
:103F500021071B070A152121150A071B0721536991
:103F6000013B53615DF8044B7047137C03F003037E
:103F70000029E6D043F00403E3E753695DF8044BFE
:103F8000023B5361704753695DF8044B0233536140
:103F9000704753695DF8044B01335361704700BFAC
:103FA000241C0020214BD3F8D420136850681968D2
:103FB000936810B404681940D06804421BD0137C85
:103FC00003F0030309B143F0040343F0080399101D
:103FD000013B11740D2B0BD8DFE803F021071B0701
:103FE0000A152121150A071B07215369013B53615B
:103FF0005DF8044B7047137C03F003030029E6D0FF
:1040000043F00403E3E753695DF8044B023B53615B
:10401000704753695DF8044B02335361704753692D
:104020005DF8044B01335361704700BF241C00202E
:10403000214BD3F8D820136850681968936810B4DE
:1040400004681940D06804421BD0137C03F00303BA
:1040500009B143F0040343F008039910013B1174C4
:104060000D2B0BD8DFE803F021071B070A152121D0
:10407000150A071B07215369013B53615DF8044B87
:104080007047137C03F003030029E6D043F00403D8
:10409000E3E753695DF8044B023B53617047536992
:1040A0005DF8044B02335361704753695DF8044B6C
:1040B00001335361704700BF241C00200F4B0121C6
:1040C00010B5187803F006FA0D4B02210D4C187844
:1040D00003F000FA0C4B0221187803F0FBF920786A
:1040E000022103F0F7F92068032208493628BDE8C9
:1040F0001040D4BFC0B2FF2003F02EBAA40D0020A0
:10410000B00D0020AC0D0020A80D002071070000AC
:1041100070B5494C237E012B3FD972B6636962B6F4
:1041200083EAE372A2EBE372032A22DC434D444CA0
:10413000D5F8C8202368414E9B1AB3F5FA7F10D8F2
:104140002368D5F888203D4C9B1A3D4D0A2B00D89A
:1041500070BD04F14800FDF729FE2B68C4F88830D3
:1041600070BD06F1C800FDF7BBFF2368C6F8C83074
:10417000E6E7344A314D11683348C5F8F43002F0AF
:1041800027FF314802F0BCFE72B60023636162B6BD
:1041900005F1C800FDF7A4FFC9E772B6236861689E
:1041A0001A680868E168A368084202EA03022BD093
:1041B000237C03F003030AB143F0040343F0080334
:1041C0009A10013B22740D2BA8D801A252F823F0BB
:1041D000B1260000A9260000A1260000A9260000A3
:1041E0009D25000099260000B1260000B1260000A0
:1041F000992600009D250000A9260000A1260000A8
:10420000A9260000B1260000237C03F00303002A46
:10421000D6D043F00403D3E76369023B63617EE7D2
:104220006369023363617AE76369013B636176E73F
:1042300063690133636172E7041B0020201B0020C7
:104240001C1D0020201C00203C1000202DE9F84FF0
:10425000A4484FF0000AFDF7ABFDA348FDF72CFD85
:10426000A248FDF7A5FFA24800F0E4FDA14AA24B39
:10427000022116781D783046DFF8C0B203F02AF923
:10428000284602219D4F03F025F99D4A9D494FEA9A
:10429000061C10684FEA0519DBF800B04FF4FA630A
:1042A00057F80C8007EB090EA1FB0BB1964CBC44F0
:1042B000DEF80CE0890CC4F80080DCF80CC057F87C
:1042C000097003FB01F1C4F808C0C4F814A0C4F8D5
:1042D0000CE0676013681B1A9942FBD8D8F80030CD
:1042E0003A681CEA030F14BF012300231EEA020FE1
:1042F00002D043F00203DBB22374362E00F26C8549
:10430000DFE816F05D0554054A05400536052C0525
:10431000220518050E050405FA04F004E604DC0481
:10432000D204C804BE04B404AA04A00446043C0495
:1043300033042A04210418040F040604FD03F403C3
:10434000EB03E203D803CE03C403BA03B003A6030E
:104350009C03920388037E0374036A03600356037D
:104360004C03420338032E0324031A0310030603ED
:104370003700664B042266493620C3F8D840012630
:1043800003F0EAF82676362D00F22385DFE815F0F3
:10439000B702AF02A6029D0294023A02310228023D
:1043A0001F0216020D020402FB01F201E901E00105
:1043B000D701CE01C501BC01B301AA01A101980139
:1043C0008F0186017D0174016B0162015901500169
:1043D00046013C01320128011E0114010A010001BD
:1043E000F600EC00E200D8009F0095008B008100F1
:1043F00077006D00630059004F0045003700434BC4
:10440000042243493620C3F8D840012503F0A4F81C
:10441000237E1D442576BDE8F88F3C4B04223D49A0
:104420003520C3F8D440012503F096F8F0E7374B68
:10443000042239493420C3F8D040012503F08CF818
:10444000E6E7324B042235493320C3F8CC4001253E
:1044500003F082F8DCE72D4B042231493220C3F807
:10446000C840012503F078F8D2E7284B04222D49F3
:104470003120C3F8C440012503F06EF8C8E7234B90
:10448000042229493020C3F8C040012503F064F814
:10449000BEE71E4B042225492F20C3F8BC4001254E
:1044A00003F05AF8B4E7194B042221492E20C3F82F
:1044B000B840012503F050F8AAE7144B04221D4927
:1044C0002D20C3F8B440012503F046F8A0E70F4BB8
:1044D000042219492C20C3F8B040012503F03CF810
:1044E00096E700BF201B0020681B0020E81B00206F
:1044F000181C0020A80D0020B00D0020100700207F
:10450000041000E083DE1B43041B0020241C002059
:10451000B124000025240000992300000D23000091
:1045200081220000F521000069210000DD2000004B
:1045300051200000C51F0000391F0000080E002098
:10454000B54B0422B5492B20C3F8AC40012503F03C
:1045500003F85DE7B04B0422B1492A20C3F8A84014
:10456000012502F0F9FF53E7AB4B0422AD492920A6
:10457000C3F8A440012502F0EFFF49E7A64B04224F
:10458000A9492820C3F8A040012502F0E5FF3FE734
:10459000A14B0422A5492720C3F89C40012502F025
:1045A000DBFF35E79C4B0422A1492620C3F8984045
:1045B000012502F0D1FF2BE7974B04229D492520CE
:1045C000C3F89440012502F0C7FF21E7924B042273
:1045D00099492420C3F89040012502F0BDFF17E758
:1045E0008D4B042295492320C3F88C40012502F00D
:1045F000B3FF0DE7884B042291492220C3F888407D
:10460000012502F0A9FF03E7834B04228D492120F5
:10461000C3F88440012502F09FFFF9E67E4B042297
:1046200089492020C3F88040012502F095FFEFE67C
:10463000794B042285491F20DC67012502F08CFF9D
:10464000E6E6754B042282491E209C67012502F094
:1046500083FFDDE6704B04227E491D205C67012547
:1046600002F07AFFD4E66C4B04227B491C201C67C5
:10467000012502F071FFCBE6674B042277491B202E
:10468000DC66012502F068FFC2E6634B0422744930
:104690001A209C66012502F05FFFB9E65E4B0422FA
:1046A000704919205C66012502F056FFB0E65A4BAE
:1046B00004226D4918201C66012502F04DFFA7E673
:1046C000554B042269491720DC65012502F044FF9F
:1046D0009EE6514B0422664916209C65012502F096
:1046E0003BFF95E64C4B0422624915205C65012591
:1046F00002F032FF8CE6484B04225F4914201C650F
:10470000012502F029FF83E6434B04225B49132075
:10471000DC64012502F020FF7AE63F4B0422584971
:1047200012209C64012502F017FF71E63A4B042227
:10473000544911205C64012502F00EFF68E6364BF7
:104740000422514910201C64012502F005FF5FE698
:10475000314B04224D490F20DC63012502F0FCFEA1
:1047600056E62D4B04224A490E209C63012502F097
:10477000F3FE4DE6284B042246490D205C630125DB
:1047800002F0EAFE44E6244B042243490C201C6359
:10479000012502F0E1FE3BE61F4B04223F490B20BE
:1047A000DC62012502F0D8FE32E61B4B04223C49B4
:1047B0000A209C62012502F0CFFE29E6164B042256
:1047C000384909205C62012502F0C6FE20E6124B42
:1047D0000422354908201C62012502F0BDFE17E6BF
:1047E0000D4B042231490720DC61012502F0B4FEA3
:1047F0000EE6094B04222E4906209C61012502F099
:10480000ABFE05E6044B04222A4905205C61012524
:1048100002F0A2FEFCE500BF241C0020AD1E00003B
:10482000211E0000951D0000091D00007D1C0000D8
:10483000F11B0000651B0000D91A00004D1A000092
:10484000C119000035190000A91800002118000046
:1048500099170000111700008916000001160000CA
:1048600079150000F114000069140000E113000044
:1048700059130000D112000049120000C1110000BC
:1048800039110000B110000029100000A10F000034
:10489000190F0000910E0000090E0000810D0000AC
:1048A000F90C0000710C0000E90B0000610B000026
:1048B000D90A0000510A00000422BA4BBA49012566
:1048C00010461C6102F048FEA2E5B64B0422B7492F
:1048D0000320DC60012502F03FFE99E5B14B042284
:1048E000B34902209C60012502F036FE90E5AD4BF5
:1048F0000422B04901205C6002F02EFE88E5A94B3D
:104900000422AD4900201C60012502F025FE7FE550
:10491000A44B0422A9493520C3F8D440012602F053
:104920001BFE2FE59F4B0422A5493420C3F8D0403D
:10493000012602F011FE25E59A4B0422A1493320FD
:10494000C3F8CC40012602F007FE1BE5954B04227C
:104950009D493220C3F8C840012602F0FDFD11E553
:10496000904B042299493120C3F8C440012602F03B
:10497000F3FD07E58B4B042295493020C3F8C04076
:10498000012602F0E9FDFDE4864B042291492F2027
:10499000C3F8BC40012602F0DFFDF3E4814B0422A2
:1049A0008D492E20C3F8B840012602F0D5FDE9E478
:1049B0007C4B042289492D20C3F8B440012602F023
:1049C000CBFDDFE4774B042285492C20C3F8B040AF
:1049D000012602F0C1FDD5E4724B042281492B204F
:1049E000C3F8AC40012602F0B7FDCBE46D4B0422C6
:1049F0007D492A20C3F8A840012602F0ADFDC1E49C
:104A0000684B042279492920C3F8A440012602F00A
:104A1000A3FDB7E4634B042275492820C3F8A040E6
:104A2000012602F099FDADE45E4B04227149272076
:104A3000C3F89C40012602F08FFDA3E4594B0422E9
:104A40006D492620C3F89840012602F085FD99E4BF
:104A5000544B042269492520C3F89440012602F0F2
:104A60007BFD8FE44F4B042265492420C3F890401E
:104A7000012602F071FD85E44A4B0422614923209E
:104A8000C3F88C40012602F067FD7BE4454B04220D
:104A90005D492220C3F88840012602F05DFD71E4E3
:104AA000404B042259492120C3F88440012602F0DA
:104AB00053FD67E43B4B042255492020C3F8804056
:104AC000012602F049FD5DE4364B042251491F20C6
:104AD000DC67012602F040FD54E4324B04224E49CB
:104AE0001E209C67012602F037FD4BE42D4B04226B
:104AF0004A491D205C67012602F02EFD42E4294B45
:104B0000042247491C201C67012602F025FD39E4D8
:104B1000244B042243491B20DC66012602F01CFDC5
:104B200030E4204B042240491A209C66012602F002
:104B300013FD27E41B4B04223C4919205C66012627
:104B400002F00AFD1EE4174B0422394918201C66A6
:104B5000012602F001FD15E4124B0422354917200D
:104B6000DC65012602F0F8FC0CE40E4B042232490D
:104B700016209C65012602F0EFFC03E4094B042299
:104B80002E4915205C65012602F0E6FCFFF7FABB12
:104B9000044B04222A4914201C65012602F0DCFC87
:104BA000FFF7F0BB241C0020C909000041090000E8
:104BB000B908000031080000A90700002524000002
:104BC000992300000D23000081220000F521000040
:104BD00069210000DD20000051200000C51F0000F9
:104BE000391F0000AD1E0000211E0000951D0000B1
:104BF000091D00007D1C0000F11B0000651B00006A
:104C0000D91A00004D1A0000C11900003519000022
:104C1000A9180000211800009917000011170000C2
:104C2000891600000116000079150000F11400003B
:104C300069140000E113000059130000D1120000B4
:104C400049120000664B042266491320DC640126E9
:104C500002F082FCFFF796BB614B042262491220EE
:104C60009C64012602F078FCFFF78CBB5C4B0422AD
:104C70005E4911205C64012602F06EFCFFF782BBE6
:104C8000574B04225A4910201C64012602F064FC90
:104C9000FFF778BB524B042256490F20DC630126F4
:104CA00002F05AFCFFF76EBB4D4B042252490E2016
:104CB0009C63012602F050FCFFF764BB484B0422C2
:104CC0004E490D205C63012602F046FCFFF75ABBFB
:104CD000434B04224A490C201C63012602F03CFC91
:104CE000FFF750BB3E4B042246490B20DC620126F5
:104CF00002F032FCFFF746BB394B042242490A203E
:104D00009C62012602F028FCFFF73CBB344B0422D6
:104D10003E4909205C62012602F01EFCFFF732BB0F
:104D20002F4B04223A4908201C62012602F014FC91
:104D3000FFF728BB2A4B042236490720DC610126F5
:104D400002F00AFCFFF71EBB254B04223249062065
:104D50009C61012602F000FCFFF714BB204B0422EB
:104D60002E4905205C61012602F0F6FBFFF70ABB25
:104D700004221B4B2A49012610461C6102F0ECFB61
:104D8000FFF700BB164B042226490320DC600126F6
:104D900002F0E2FBFFF7F6BA114B0422224902208F
:104DA0009C60012602F0D8FBFFF7ECBA0C4B042202
:104DB0001E4901205C6002F0CFFBFFF7E3BA084B0D
:104DC00004221B4900201C60012602F0C5FBFFF7EE
:104DD000D9BA0025FFF71CBB0026FFF7D3BA00BFE6
:104DE000241C0020C111000039110000B110000086
:104DF00029100000A10F0000190F0000910E000003
:104E0000090E0000810D0000F90C0000710C00007B
:104E1000E90B0000610B0000D90A0000510A0000F4
:104E2000C909000041090000B9080000310800006C
:104E3000A907000000224260704700BF10B4047F41
:104E40004160022CC26003D05DF8044B01F0A8BFA2
:104E500083685DF8044B1847F0B5304C304BA06CBC
:104E6000656C0179226CD9772979197701791977DD
:104E7000FAB1B2F5004F18D22B6892B2D98B0E045A
:104E80003BD4DA83D98B89B2D9820368D98B0904E0
:104E90002CD4DA830021DA8B92B2DA82216402798F
:104EA0001F4BDA762A79DA76F0BD1E4B1344236461
:104EB000F5E7E06C0F25236840F2013E01684FF4EE
:104EC0007C579D6503260D681749DA618D42C3F84A
:104ED00010E05F6184F83D6017D1037F4260022BD0
:104EE000C26017D0BDE8F04001F05ABFD98BC2F3C1
:104EF000080201F47E410A43CBE7D98BC2F30806CE
:104F000001F47E413143D983BCE72B461146BDE80D
:104F1000F04018478368BDE8F0401847B40D002002
:104F200000800E400180FFFFBD3200004368F0B5F5
:104F300093E88200DFF8FCE1B8260A680225754C88
:104F400022EA0702744F0A60DEF818201440734A00
:104F500027430F24CEF81870077C1F443F7C02EBD8
:104F60000717BF683E60477C1F4497F8247002EB28
:104F70000717BF683E60877C1F4497F8387002EBC4
:104F80000717BF683E600F685E683E430E60017C95
:104F90005E1803EB8101367C4F6902EB061149680C
:104FA0000F60417C5E180A3196F8246053F8217036
:104FB00002EB061149680F60817CD3F848E05E1867
:104FC00003EB81011F6A96F83860C96B02EB061289
:104FD0005E6B52681160817C0268194491F844103C
:104FE000CEF80010017C1944097F3960417C0B44E4
:104FF00093F83030336015619465C37C002B29D061
:1050000072B6C37CDC0706D5454A436911680B407C
:1050100083621360C37C990706D5424A836911688D
:105020000B40C3621360C37C5A0706D53E4AC3696E
:1050300011680B4003631360C37C1F0706D53B4A0E
:10504000036A11680B4043631360C37CDE064BD4D4
:1050500062B60268364D8368AB424CD0354B8560F2
:105060009B69354CC3F30116C3F38261334B54F88B
:1050700026400131B4FBF1F1A3FB01431B0D29D103
:10508000C3600026032507240121166155621364BD
:1050900014661161C37CE3B1DD0703D5284B826A36
:1050A0001A60C37C9C0703D5264BC26A1A60C37C76
:1050B000590703D5244B026B1A60C37C1A0703D52A
:1050C000224B426B1A60C37CDB0602D5826B204BFD
:1050D0001A60F0BDB1FBF3F1A94288BF0133B3F50B
:1050E000817F0AD31B4BCBE71B4A436A11680B40F5
:1050F00083631360ACE7C368C3E7022B98BF002348
:10510000BED9023B5C08210443EA042301F47F0179
:105110000B43B5E7CFFFFFE31000000810070020A6
:1051200080E100E084E100E088E100E08CE100E063
:1051300000093D0000C00F401000002083DE1B432B
:1051400000E100E004E100E008E100E00CE100E043
:1051500010E100E0FF7F7F0090E100E00020704759
:10516000704700BF2DE9F04F85B016460D469946B1
:10517000BDF938200B46C5EB090B8046911BBDF8E5
:105180003CA00029B8BF4942BBF1000FB8BFCBF12A
:10519000000B0091594549DC4D45104633464CDC27
:1051A000194603460846C5EB09011B1A89B2002BB4
:1051B0000CB2B8BF5B420391002CB8BF01349642D9
:1051C000ACBF4FF0FF3201224D454FEA640402921A
:1051D00029DC9BB201930DE0D8F80070BF69B84795
:1051E000019B0135E41A2DB2A3B21CB2002C11DBD5
:1051F000A94518DB009B2A46314640465B4553468D
:10520000EADCD8F800005346324629468769404612
:10521000B847E5E7029AA9451644039A02EB03044E
:1052200036B224B2E6DA05B0BDE8F08F484635461E
:1052300091461E4602464D45B2DD34462946164685
:105240004D4622468946AEE710B404682469A44658
:105250005DF8044B604700BF30B40468BDF80850E7
:105260000295A46BA44630BC604700BF30B404680C
:10527000BDF808500295E46BA44630BC604700BFFF
:1052800070B40468BDF90C60BDF810500396049525
:10529000246CA44670BC6047704700BF30B5002244
:1052A00083B0B0F90C500468019111460095B0F933
:1052B0000A30246CA04703B030BD00BF704700BF68
:1052C00001F003010129017606D0032904D0C28828
:1052D00003894281838170470289C3884281838127
:1052E000704700BF2DE9F04106681446124F84B0A4
:1052F00072690546BDF82880BA4211D1581E22466F
:10530000CDF804800B460444284624B20094B46AC5
:10531000A0472B68DB6ABB4209D104B0BDE8F0812D
:105320000393029190472E68039B0299E6E7284673
:1053300004B0BDE8F0411847193700002DE9F041ED
:10534000056886B0114E04466F69BDF83080B742DB
:105350000ED1013B20460B448DE804011BB2AD6A1F
:10536000A8472368DB6AB3420AD106B0BDE8F081E2
:10537000059304920391B84703A925680EC9E8E78D
:10538000204606B0BDE8F041184700BF19370000BD
:105390002DE9F04F17460268DFF854A00C4651691A
:1053A00083B005461E465145BDF93080BDF83490A6
:1053B00016D12644B4420DDA21460134CDF80090CE
:1053C000434624B2D2F820B028463A46D847B442E1
:1053D0002A68F1DBD36A534505D103B0BDE8F08FED
:1053E00088472A68E5E7284603B0BDE8F04F18472C
:1053F000193700002DE9F041994284B01646054660
:10540000BDF92840BDF82C7029D0A24215D0D0F8A3
:1054100000E0DFF87C80DEF8142042452FD13246D0
:1054200028468DE89000DEF82840A0472B68DB6A0C
:1054300043451FD104B0BDE8F081994202DD0A4620
:1054400019461346286801330A9732465B1AC46B23
:1054500028461BB2A44604B0BDE8F0416047A24212
:1054600001DD26461446631C286832460A979B1BBA
:10547000846BEDE7284604B0BDE8F041184703937C
:1054800002919047D5F800E0039B0299C7E700BF5F
:10549000193700002DE9F04F17460268DFF88C90AD
:1054A0001E46536983B004460D464B45BDF930A0F6
:1054B000BDF8348031D12946CDF800803346D2F88A
:1054C00024B020463A46D8470AF1FF3220682946E0
:1054D0003A443346CDF8008012B2D0F824B02046CA
:1054E000D84722682946CDF800805346D2F820B02C
:1054F00020463A46D847711E206853462944CDF8C5
:1055000000803A46056A09B22046A8472368DB6A4C
:105510004B4505D103B0BDE8F08F98472268CAE734
:10552000204603B0BDE8F04F184700BF1937000010
:10553000F0B4002401254FF6FF76094F047107608F
:105540000476C48104828476C461C5758575457608
:1055500086824682C180028141818281F0BC70478F
:10556000FC0000202DE9F04F9CB207461E468BB090
:10557000C4EBC430002E9DF850304FEA4000BDF817
:1055800054B000B2049040F3C98089B203F004051E
:1055900003F0020092B2039103F0080103F001034B
:1055A0000292039AC4F101040893C3B20132EDB22E
:1055B0000793CBB224B2099205954FF000090693E8
:1055C0000196DDF808A00FE0079B002B44D1069B55
:1055D000002B60D1089B002B7DD1029B09F10109B2
:1055E000019A934280F29A80002C0ADB049B019A74
:1055F0000233561E9BB232B21C441BB2019224B23B
:1056000004931FFA89F56B1C04EB45041BB20334A9
:10561000029324B2059B002BD6D0BDF80480099BD1
:1056200038680AEB0802E9185B46806912B209B2D1
:1056300006463846B047039B0AF10102386803EB7F
:1056400008015B462A44D0F8188009B2384612B2E5
:10565000C047079B002BBAD0BDF80480099B38686F
:10566000C8EB0A02E9185B46806912B209B2064625
:105670003846B047039B0AF1FF32386803EB080154
:105680005B46521BD0F8188009B2384612B2C047A8
:10569000069B002B9ED0BDF804800AF101023868F9
:1056A0005B4603992A448069C8EB010112B20646A1
:1056B000384609B2B0470399386808EB0A02013945
:1056C0005B46D0F8188012B2491B384609B2C04771
:1056D000089B002B81D0BDF804800AF1FF323868A6
:1056E0005B460399521B806909F10109C8EB01016E
:1056F00012B20646384609B2B04703993868C8EB7B
:105700000A0201395B4612B2491B8569384609B263
:10571000A847029B019A9342FFF666AF0BB0BDE823
:10572000F08F00BF2DE9F04F89B00C4605460068A8
:10573000BDF948A0BDF94C909A4551464669A8BFAD
:105740001946BDF850800029B8BF0131491089457C
:10575000A8BF894649498E4240F083801FFA89F1EB
:10576000CDF800809BB2466AA0B203911F464B0061
:10577000049028469BB207971FFA8AFA0593049B68
:105780009E460EEB010B05991FFA82FE7F1A0FFA57
:105790008BFBCDF818E03FB259463B46B047069E1A
:1057A0002A683B46013ECDF800805946576A564468
:1057B0002846B6B232B2B847059A039B28460699E6
:1057C000C2EB0A0A2A685F180FFA8AFA2146CDF856
:1057D00000803FB25346146A3A46A0470498079A9D
:1057E0005346441E29682846CDF800801444D1F859
:1057F00020A03A46A4B221B2D04701233A465946E6
:10580000009328464B46CDF80480FFF7ABFE039B80
:105810003A462846E41A022324B28DE808012146BC
:105820004B46FFF79FFE039B21462846F61A0423AA
:1058300036B28DE8080132464B46FFF793FE08204A
:1058400032464B4600905946CDF804802846FFF773
:1058500089FE2B68094ADB6A93420AD109B0BDE888
:10586000F08F049328460392B0472868049B039A5C
:1058700074E7284609B0BDE8F04F18471937000013
:105880002DE9F04F93B01F469246C269BDF87030C3
:10589000109008939DF87C300391BDF874809DF8BA
:1058A00078B00593002A00F0AC80137ABBF1010FA9
:1058B0005168A7EB03031268DBB2049201EBC30249
:1058C00031F83360D37892F802800C9392F9053066
:1058D00092F90640099365D8059B012B94BF0023DC
:1058E0000123002B5ED10D930A93109BD3F800E0A7
:1058F000AC4B1A461193DEF8143093427BD10C9BCB
:10590000002B6BD01FFA8AF30022DDF840900E9333
:1059100017462344DDF80CA0144607920F93B8F104
:10592000000F54D0BDF81C3000250F990D9A039735
:105930009A180B44BDF814101BB212FB01F20B9322
:105940000E9B13441BB2069305E001356400EBB2D5
:10595000E4B2984538D9039B721C2B44590702D1F5
:10596000049B9C5D96B22306EFD50A9BBBF1010F09
:10597000069A484605EB030C099B1CFB0BFC03EB4A
:105980000A015B462944D44409B211D1059F012F75
:105990000ED1DEF818300B9A1F46089BB847D9F88D
:1059A00000E0D2E7BDF924300A9323B20D939CE7BF
:1059B0000899059F01910FFA8CF10097DEF81C7091
:1059C000B847D9F800E0C0E7039F4744FFB2079B00
:1059D0000C9A01330793DBB29A42A0D8DEF82C3040
:1059E000119A934202D113B0BDE8F08F109813B012
:1059F000BDE8F04F1847109D28469847D5F800E0BD
:105A00007DE7B0F90A3002468B42ECDDB2F90C308A
:105A10005345E8DD062313FB0B13002BE3DD059B49
:105A20000AEBC303002BDEDDAF2F1346927E94BF3B
:105A3000002301239A4201D27B1CDFB2109BD3F8D2
:105A400000E0584B1A461193DEF81430934240F0B0
:105A5000A380BDF80C3070460D970A930023109F69
:105A600009930523DDF814900B931FFA8BF3CDF8FF
:105A70000CA00C930FFA8BF307930523099C0A9D46
:105A80001A460C9BBDF834101E4615FA84F312FB1F
:105A9000014104FB06521BB2434D082412B2069387
:105AA0006E5C0025049216E0BBF1010F039B23D12D
:105AB000B9F1010F20D1EA18D0F818A0089B384698
:105AC000069912B2D0473868013C0135760814F0C7
:105AD000FF046DB225D0F307E6D4089B4345F3D00D
:105AE000BBF1010F039B16D1B9F1010F13D1EA18D5
:105AF000D0F818A04346E2E705FB09320899079B56
:105B00000191CDF8009012B2D0F81CA0384604994B
:105B1000D0473868D8E705FB0932079BCDF80480E9
:105B2000EFE7099A0B9B0132013B52B213F0FF03DE
:105B300009920B93A1D1089B8646DDF80CA0434542
:105B40003FF44CAFBBF1010F10D1059B012B0DD1E0
:105B50000A995246109D08230531CDF80080046A49
:105B6000284609B2A047D5F800E037E70C9B0A9A0F
:105B700003EB8301059B109D0A44D800CDF80480F7
:105B80005B46114600905246DEF81C40284609B29A
:105B9000A047D5F800E021E7109C20469847D4F8AC
:105BA00000E056E7193700004C010020C369F0B54A
:105BB000044685B0002B3BD00A292ED00D2929D0D0
:105BC0001A7A914226D3987A884223D38A1A5D683A
:105BD000D2B205EBC205E878AA78A8B1A2B1607E7E
:105BE000002852D1A67DE77DB4F90E00B4F910204B
:105BF000B4F814E00B4603970146678A20460296E4
:105C00008DE88040FFF73CFE2979E389A27D01FB06
:105C10000233E381012005B0F0BD0022C07D218A5E
:105C2000E2811A7B00FB02130120238205B0F0BD44
:105C30000A294ED00D29EDD0427E002A42D0B0F97B
:105C40000E000622A57DB4F90A6012FB0502B242DD
:105C5000E67D34DD228A1846E38102EBC60212B2E9
:105C60002282B4F814E00B46678A01460396204668
:105C700002958DE88040FFF703FEA37DE28903EBE8
:105C8000430302EB4303E381C4E795F90560B4F9EC
:105C90000E003244A67DB4F90A7006FB0202BA4235
:105CA00009DD0020228AE77DE0811B7B03FB0722C0
:105CB00012B222829CE7E77DB4F9102098E7B4F98C
:105CC0001020CEE7857DC67DB4F91020B0F90E0016
:105CD000C7E7028AC17DC38102EBC103038299E752
:105CE00011B18175C175704701218175C17570470A
:105CF00090F86430F0B50C1283B0CDB2B3B9511E38
:105D000092B1036B1A685466D36D13F4F81FFBD07D
:105D1000036B526F1A685566D36D13F4F81FFBD0EE
:105D20000139536F4F1CECD103B0F0BD012B8E46EF
:105D30001FD0AC4256D0531E9AB9F5E7026B1460DF
:105D4000426C066D1660026C066D1660026B156083
:105D5000426C013B066D1660026C066D16605A1CA3
:105D6000E2D090F85B20002AE8D0026BA2F800E0B5
:105D7000EEE7002512F1FF32D6D3D0F83CC07446CE
:105D8000076C10232604416C4CBF466B866B316058
:105D9000866CCCF800608DF806509DF806604EB910
:105DA0009DF806600136F6B28DF806609DF8066033
:105DB000002EF5D0866C64003E60A4B28DF80750CA
:105DC0009DF807604EB99DF807600136F6B28DF870
:105DD00007609DF80760002EF5D0013B9BB2002BB9
:105DE000D0D1C7E790F85B3083B9036B52001C60D9
:105DF000531E002A98D0426C013B016D1160016D69
:105E0000026C1160591CF6D103B0F0BD036B198010
:105E1000EEE700BFF0B5002A83B0BDF820602EDBAE
:105E20001C46B0F90C300546934228DD3CB3002CEB
:105E300027DBB5F90A308B4221DD1FFA81FE0EEB1C
:105E40000407BFB2781E00B2002818DB00291FDB50
:105E5000834202DCCEEB030424B22868012392B211
:105E600071460093A3B2476D2846B8473CB122461D
:105E70003146284603B0BDE8F040FFF739BF03B014
:105E8000F0BDA4B20131634221441CB209B2D0E793
:105E90003CB24FF0000EDBE790F96630002B02DBDE
:105EA000036AC26D1A6090F8643003B17047026BE8
:105EB000D37C002BFAD0D80703D50E4B916A19601A
:105EC000D37C990703D50C4BD16A1960D37C580752
:105ED00003D50A4B116B1960D37C190703D5084B06
:105EE000516B1960D37CDB06E0D5926B054B1A60D1
:105EF000704700BF00E100E004E100E008E100E0DD
:105F00000CE100E010E100E02DE9F04F83B0BDF9B5
:105F10003050BDF83470002B4BD0002D49D0002BF1
:105F200006461C4648DBB6F90A308B4241DD002D9F
:105F30004DDBB6F90C0090423BDD1FFA81FC0CEB07
:105F400004081FFA88F808F1FF3E0FFA8EFEBEF132
:105F5000000F2EDB1FFA82F909EB050B1FFA8BFBF2
:105F60000BF1FF3A0FFA8AFABAF1000F21DB002990
:105F700034DB002A37DB734502DCCCEB030424B2AC
:105F8000504502DCC9EB00052DB23068ABB24A4681
:105F900061460093A3B2D0F854803046C04704FB5A
:105FA00005F232B13946304603B0BDE8F04FFFF795
:105FB0009FBE03B0BDE8F08F9CB201316342214423
:105FC0001CB2B6F90A3009B28B42B0DCF1E7ADB2CF
:105FD00001322A446D4212B22DB2AAE70FFA88F4B8
:105FE0004FF0000CC5E70FFA8BF54FF00009C2E740
:105FF0002DE9F04F83B0BDF93050BDF83470002B5F
:1060000054D0002D52D0002B06461C4651DBB6F969
:106010000A308B424ADD002D56DBB6F90C00904267
:1060200044DD1FFA81F808EB040C1FFA8CFC0CF11C
:10603000FF3E0FFA8EFEBEF1000F37DB1FFA82F92A
:1060400009EB050B1FFA8BFB0BF1FF3A0FFA8AFAEB
:10605000BAF1000F2ADB00293DDB002A40DB734543
:1060600002DCC8EB030424B2504502DCC9EB000596
:106070002DB2336830465B699847D6F800E0A8B285
:106080004A464146A3B200903046DEF85480C047ED
:1060900004FB05F21AB139463046FFF729FE336892
:1060A0003046DB6A03B0BDE8F04F184703B0BDE8E7
:1060B000F08F9CB20131634221441CB2B6F90A3020
:1060C00009B28B42A7DCF1E7ADB201322A446D423E
:1060D00012B22DB2A1E70FFA8CF44FF00008BCE722
:1060E0000FFA8BF54FF00009B9E700BF2DE9F04139
:1060F000161E82B0BDF8207036DB1D46B0F90C309C
:106100000446B34230DD7DB3002D30DBB4F90A30F4
:106110008B4229DD1FFA81F808EB050080B2421E90
:1061200012B2002A20DB002928DB934202DCC8EBF4
:1061300003052DB2236820465B6998472068012338
:10614000B2B241460093ABB2466D2046B04725B18E
:106150002A4639462046FFF7CBFD23682046DB6AF6
:1061600002B0BDE8F041184702B0BDE8F081ADB221
:1061700001316B4229441DB209B2C7E705B24FF0A5
:106180000008D2E72DE9F0410E1E82B0BDF8207064
:1061900038DB1D46B0F90A300446B34232DD8DB318
:1061A000002D32DBB4F90C3093422BDD1FFA82F85C
:1061B00008EB050080B2411E09B2002922DB002A4B
:1061C0002ADB8B4202DCC8EB03052DB22368204694
:1061D0005B699847D4F800E0A8B24246B1B2012307
:1061E00000902046DEF85460B04725B12A46394673
:1061F0002046FFF77DFD23682046DB6A02B0BDE83C
:10620000F041184702B0BDE8F081ADB201326B42F7
:106210002A441DB212B2C5E705B24FF00008D0E71C
:10622000F0B5002983B0BDF820602EDB1C46B0F924
:106230000A3005468B4228DD3CB3002C27DBB5F93C
:106240000C30934221DD1FFA82FE0EEB0407BFB231
:10625000781E00B2002818DB002A1FDB834202DC14
:10626000CEEB030424B22868A3B2724689B200932D
:106270000123476D2846B8473CB12246314628469F
:1062800003B0BDE8F040FFF733BD03B0F0BDA4B2EA
:106290000132634222441CB212B2D0E73CB24FF04A
:1062A000000EDBE790F8643070B443B190F96630CB
:1062B000002B02DB436AC26D1A6070BC7047036B2F
:1062C000416BDA7C856B002A2ED072B6DA7CD60759
:1062D00006D5324C5A69266832409A622260DA7CCE
:1062E000940706D52E4C9A6926683240DA622260FD
:1062F000DA7C560706D52B4CDA69266832401A63D9
:106300002260DA7C140706D5274C1A6A26683240C8
:106310005A632260DA7CD20605D5244C5A6A266874
:1063200032409A63226062B69A688A4226D0204A36
:10633000996092691F4CC2F30116C2F3826254F84D
:1063400026400132B4FBF2F4B1B1B4FBF1F242B138
:10635000B4FBF2F48C4288BF0132B2F5817F0FD3D7
:10636000154ADA601B680026032401211E615C6265
:106370001A641D66196199E72246E8E7DA68F1E7D1
:10638000022A08D9023A5408210442EA042201F4FC
:106390007F010A43E5E70022E3E700BF80E100E078
:1063A00084E100E088E100E08CE100E090E100E0C1
:1063B00000C00F4010000020FF7F7F002DE9F0415A
:1063C0009DF91C6012B209B2044698469DF9185016
:1063D0009DF92070FFF7ACF8002230011A4B1B49E1
:1063E000954284F8657084F8665001EB000784F8E4
:1063F0006760C4F8308084F8642084F86C2084F8E6
:106400006D2023600B582267FE6803F1840003F1BE
:106410008803A4F868202666A4F86A20A062E362D4
:106420000CDB2D0120464B594A19D16803F1840237
:106430008833E16522626362BDE8F0812062204614
:10644000E2656362BDE8F081540600201007002079
:1064500070B584B004469DF920609DF924508DE804
:1064600048000295024BFFF7A9FF204604B070BD1B
:10647000B40D0020F8B504464D4B90F96600174660
:10648000002914BF0D461D46002808DBC0B20121BB
:1064900001F020F8012194F8660001F00FF80121C5
:1064A00094F8670001F016F8012194F8670001F0F4
:1064B00005F894F8646086BB17F0080F3D4B6563E0
:1064C00008BF07237A07E76348BF43F08043206B88
:1064D000A363FEF72BFD94F96500002842DBC0B2F0
:1064E000012100F0F7FF012194F8650000F0E6FFBC
:1064F000642000F049FF002194F8650000F0DEFF01
:10650000642000F041FF94F86500012100F0D6FFFF
:10651000C820BDE8F84000F037BF012E2BD094F81A
:106520005B3003BBA26BFF211160226B1360012162
:1065300094F8590000F0CEFF94F85900012100F0C2
:10654000BDFF94F95A000028C5DBC0B2012100F05C
:10655000C1FF94F85A00012100F0B0FF94F96500E2
:106560000028BCDAF8BDA36B4FF6FF71002219803A
:10657000236B1A80DBE7314694F8500000F0AAFF45
:10658000002194F8500000F099FF314694F8520031
:1065900000F0A0FF94F85200002100F08FFF94F962
:1065A0005100002897DBC0B2002100F093FF92E772
:1065B0000024F4000700008090F83C20054B12F006
:1065C000080F416308BF0723520748BF43F08043C9
:1065D000836370470700008090F8643043B9036B11
:1065E0001A685166D36D13F4F81FFBD0536F7047D0
:1065F000012B0FD090F85B304BB189B2036B19803F
:10660000436C026D1A60036C026D1A607047036B75
:106610001960F5E7F0B4002282B0C56B0826046C5F
:106620000B06476C4CBF436B836B1F60836C2B6006
:106630008DF806209DF806304BB99DF806300133E1
:10664000DBB28DF806309DF80630002BF5D0836C58
:1066500049002360C9B28DF807209DF807304BB977
:106660009DF807300133DBB28DF807309DF8073015
:10667000002BF5D0731E13F0FF06D1D102B0F0BC91
:10668000704700BF036870B50D465B6904469847C4
:1066900085B994F86D10E36A2046226E1A60FFF700
:1066A0009BFF2368A26A2046216EDB6A1160BDE869
:1066B0007040184794F86C10EDE700BFC36A026E93
:1066C00010B51A60FFF788FF836A026E1A6010BD6A
:1066D00090F8643093B9026B0B1212685366D36D55
:1066E00013F4F81FFBD0036BC9B2526F1A685166DE
:1066F000D36D13F4F81FFBD0536F7047012B17D0E5
:1067000090F85B3043B1036B1980436C026D1A60E3
:10671000036C026D1A607047036B0A121A60436CB7
:10672000026D1A60036C026D1A60036B1960ECE76E
:10673000F0B4002282B0C56B1026046C0B04476CC9
:106740004CBF436B836B1F60836C2B608DF80720FD
:106750009DF807304BB99DF807300133DBB28DF857
:1067600007309DF80730002BF5D0836C23608DF83F
:1067700006209DF806304BB99DF806300133DBB298
:106780008DF806309DF80630002BF5D0731E4900B9
:1067900013F0FF0689B2D1D102B0F0BC704700BF40
:1067A0002DE9F0411F4690F8643004461646002B50
:1067B00058D094F96630002B02DB636AE26D1A60F0
:1067C000E36A2046226E1A60FFF706FFA36A226E74
:1067D0001A60C7B1002506E0013516F8011BFFF766
:1067E000FBFEBD420FD094F864302046022BF3D15B
:1067F00094F85B30002BEFD0013536F8021BFFF721
:1068000067FFBD42EFD194F96630002B02DB236AAB
:10681000E26D1A6094F864300BB1BDE8F081226B30
:10682000D37C002BF9D0DD0703D5514B916A196059
:10683000D37C9C0703D54F4BD16A1960D37C580792
:1068400003D54D4B116B1960D37C190703D54B4B06
:10685000516B1960D37CDB06DFD5926B484B1A6015
:10686000BDE8F081036B456BDA7CD0F83880002AF4
:106870003DD072B6DA7CD00709D5DFF810E158694F
:10688000DEF8002002409A62CEF80020DA7C900701
:1068900009D5DFF8FCE09869DEF800200240DA62F2
:1068A000CEF80020DA7C500709D5DFF8E8E0D86997
:1068B000DEF8002002401A63CEF80020DA7C1007D0
